{
  "contractName": "SELENDRATOKEN",
  "abi": [
    {
      "inputs": [],
      "stateMutability": "nonpayable",
      "type": "constructor"
    },
    {
      "anonymous": false,
      "inputs": [
        {
          "indexed": true,
          "internalType": "address",
          "name": "owner",
          "type": "address"
        },
        {
          "indexed": true,
          "internalType": "address",
          "name": "spender",
          "type": "address"
        },
        {
          "indexed": false,
          "internalType": "uint256",
          "name": "value",
          "type": "uint256"
        }
      ],
      "name": "Approval",
      "type": "event"
    },
    {
      "anonymous": false,
      "inputs": [
        {
          "indexed": true,
          "internalType": "address",
          "name": "from",
          "type": "address"
        },
        {
          "indexed": true,
          "internalType": "address",
          "name": "to",
          "type": "address"
        },
        {
          "indexed": false,
          "internalType": "uint256",
          "name": "value",
          "type": "uint256"
        }
      ],
      "name": "Transfer",
      "type": "event"
    },
    {
      "inputs": [
        {
          "internalType": "address",
          "name": "owner",
          "type": "address"
        },
        {
          "internalType": "address",
          "name": "spender",
          "type": "address"
        }
      ],
      "name": "allowance",
      "outputs": [
        {
          "internalType": "uint256",
          "name": "",
          "type": "uint256"
        }
      ],
      "stateMutability": "view",
      "type": "function"
    },
    {
      "inputs": [
        {
          "internalType": "address",
          "name": "spender",
          "type": "address"
        },
        {
          "internalType": "uint256",
          "name": "amount",
          "type": "uint256"
        }
      ],
      "name": "approve",
      "outputs": [
        {
          "internalType": "bool",
          "name": "",
          "type": "bool"
        }
      ],
      "stateMutability": "nonpayable",
      "type": "function"
    },
    {
      "inputs": [
        {
          "internalType": "address",
          "name": "account",
          "type": "address"
        }
      ],
      "name": "balanceOf",
      "outputs": [
        {
          "internalType": "uint256",
          "name": "",
          "type": "uint256"
        }
      ],
      "stateMutability": "view",
      "type": "function"
    },
    {
      "inputs": [
        {
          "internalType": "uint256",
          "name": "amount",
          "type": "uint256"
        }
      ],
      "name": "burn",
      "outputs": [],
      "stateMutability": "nonpayable",
      "type": "function"
    },
    {
      "inputs": [
        {
          "internalType": "address",
          "name": "account",
          "type": "address"
        },
        {
          "internalType": "uint256",
          "name": "amount",
          "type": "uint256"
        }
      ],
      "name": "burnFrom",
      "outputs": [],
      "stateMutability": "nonpayable",
      "type": "function"
    },
    {
      "inputs": [],
      "name": "decimals",
      "outputs": [
        {
          "internalType": "uint8",
          "name": "",
          "type": "uint8"
        }
      ],
      "stateMutability": "view",
      "type": "function"
    },
    {
      "inputs": [
        {
          "internalType": "address",
          "name": "spender",
          "type": "address"
        },
        {
          "internalType": "uint256",
          "name": "subtractedValue",
          "type": "uint256"
        }
      ],
      "name": "decreaseAllowance",
      "outputs": [
        {
          "internalType": "bool",
          "name": "",
          "type": "bool"
        }
      ],
      "stateMutability": "nonpayable",
      "type": "function"
    },
    {
      "inputs": [
        {
          "internalType": "address",
          "name": "spender",
          "type": "address"
        },
        {
          "internalType": "uint256",
          "name": "addedValue",
          "type": "uint256"
        }
      ],
      "name": "increaseAllowance",
      "outputs": [
        {
          "internalType": "bool",
          "name": "",
          "type": "bool"
        }
      ],
      "stateMutability": "nonpayable",
      "type": "function"
    },
    {
      "inputs": [],
      "name": "name",
      "outputs": [
        {
          "internalType": "string",
          "name": "",
          "type": "string"
        }
      ],
      "stateMutability": "view",
      "type": "function"
    },
    {
      "inputs": [],
      "name": "symbol",
      "outputs": [
        {
          "internalType": "string",
          "name": "",
          "type": "string"
        }
      ],
      "stateMutability": "view",
      "type": "function"
    },
    {
      "inputs": [],
      "name": "totalSupply",
      "outputs": [
        {
          "internalType": "uint256",
          "name": "",
          "type": "uint256"
        }
      ],
      "stateMutability": "view",
      "type": "function"
    },
    {
      "inputs": [
        {
          "internalType": "address",
          "name": "recipient",
          "type": "address"
        },
        {
          "internalType": "uint256",
          "name": "amount",
          "type": "uint256"
        }
      ],
      "name": "transfer",
      "outputs": [
        {
          "internalType": "bool",
          "name": "",
          "type": "bool"
        }
      ],
      "stateMutability": "nonpayable",
      "type": "function"
    },
    {
      "inputs": [
        {
          "internalType": "address",
          "name": "sender",
          "type": "address"
        },
        {
          "internalType": "address",
          "name": "recipient",
          "type": "address"
        },
        {
          "internalType": "uint256",
          "name": "amount",
          "type": "uint256"
        }
      ],
      "name": "transferFrom",
      "outputs": [
        {
          "internalType": "bool",
          "name": "",
          "type": "bool"
        }
      ],
      "stateMutability": "nonpayable",
      "type": "function"
    }
  ],
  "bytecode": "0x60806040523480156200001157600080fd5b506040518060400160405280600e81526020017f53454c454e44524120544f4b454e0000000000000000000000000000000000008152506040518060400160405280600381526020017f53454c00000000000000000000000000000000000000000000000000000000008152508160039080519060200190620000969291906200026e565b508060049080519060200190620000af9291906200026e565b505050620000f533620000c7620000fb60201b60201c565b60ff16600a620000d891906200045e565b63bbbaf84e620000e991906200059b565b6200010460201b60201c565b620006d0565b60006012905090565b600073ffffffffffffffffffffffffffffffffffffffff168273ffffffffffffffffffffffffffffffffffffffff16141562000177576040517f08c379a00000000000000000000000000000000000000000000000000000000081526004016200016e9062000356565b60405180910390fd5b6200018b600083836200026960201b60201c565b80600260008282546200019f9190620003a6565b92505081905550806000808473ffffffffffffffffffffffffffffffffffffffff1673ffffffffffffffffffffffffffffffffffffffff1681526020019081526020016000206000828254620001f69190620003a6565b925050819055508173ffffffffffffffffffffffffffffffffffffffff16600073ffffffffffffffffffffffffffffffffffffffff167fddf252ad1be2c89b69c2b068fc378daa952ba7f163c4a11628f55a4df523b3ef836040516200025d919062000378565b60405180910390a35050565b505050565b8280546200027c9062000606565b90600052602060002090601f016020900481019282620002a05760008555620002ec565b82601f10620002bb57805160ff1916838001178555620002ec565b82800160010185558215620002ec579182015b82811115620002eb578251825591602001919060010190620002ce565b5b509050620002fb9190620002ff565b5090565b5b808211156200031a57600081600090555060010162000300565b5090565b60006200032d601f8362000395565b91506200033a82620006a7565b602082019050919050565b6200035081620005fc565b82525050565b6000602082019050818103600083015262000371816200031e565b9050919050565b60006020820190506200038f600083018462000345565b92915050565b600082825260208201905092915050565b6000620003b382620005fc565b9150620003c083620005fc565b9250827fffffffffffffffffffffffffffffffffffffffffffffffffffffffffffffffff03821115620003f857620003f76200063c565b5b828201905092915050565b6000808291508390505b600185111562000455578086048111156200042d576200042c6200063c565b5b60018516156200043d5780820291505b80810290506200044d856200069a565b94506200040d565b94509492505050565b60006200046b82620005fc565b91506200047883620005fc565b9250620004a77fffffffffffffffffffffffffffffffffffffffffffffffffffffffffffffffff8484620004af565b905092915050565b600082620004c1576001905062000594565b81620004d1576000905062000594565b8160018114620004ea5760028114620004f5576200052b565b600191505062000594565b60ff8411156200050a57620005096200063c565b5b8360020a9150848211156200052457620005236200063c565b5b5062000594565b5060208310610133831016604e8410600b8410161715620005655782820a9050838111156200055f576200055e6200063c565b5b62000594565b62000574848484600162000403565b925090508184048111156200058e576200058d6200063c565b5b81810290505b9392505050565b6000620005a882620005fc565b9150620005b583620005fc565b9250817fffffffffffffffffffffffffffffffffffffffffffffffffffffffffffffffff0483118215151615620005f157620005f06200063c565b5b828202905092915050565b6000819050919050565b600060028204905060018216806200061f57607f821691505b602082108114156200063657620006356200066b565b5b50919050565b7f4e487b7100000000000000000000000000000000000000000000000000000000600052601160045260246000fd5b7f4e487b7100000000000000000000000000000000000000000000000000000000600052602260045260246000fd5b60008160011c9050919050565b7f45524332303a206d696e7420746f20746865207a65726f206164647265737300600082015250565b61187d80620006e06000396000f3fe608060405234801561001057600080fd5b50600436106100cf5760003560e01c806342966c681161008c57806395d89b411161006657806395d89b4114610226578063a457c2d714610244578063a9059cbb14610274578063dd62ed3e146102a4576100cf565b806342966c68146101be57806370a08231146101da57806379cc67901461020a576100cf565b806306fdde03146100d4578063095ea7b3146100f257806318160ddd1461012257806323b872dd14610140578063313ce56714610170578063395093511461018e575b600080fd5b6100dc6102d4565b6040516100e9919061119c565b60405180910390f35b61010c60048036038101906101079190610f58565b610366565b6040516101199190611181565b60405180910390f35b61012a610384565b60405161013791906112fe565b60405180910390f35b61015a60048036038101906101559190610f09565b61038e565b6040516101679190611181565b60405180910390f35b61017861048f565b6040516101859190611319565b60405180910390f35b6101a860048036038101906101a39190610f58565b610498565b6040516101b59190611181565b60405180910390f35b6101d860048036038101906101d39190610f94565b610544565b005b6101f460048036038101906101ef9190610ea4565b610558565b60405161020191906112fe565b60405180910390f35b610224600480360381019061021f9190610f58565b6105a0565b005b61022e610624565b60405161023b919061119c565b60405180910390f35b61025e60048036038101906102599190610f58565b6106b6565b60405161026b9190611181565b60405180910390f35b61028e60048036038101906102899190610f58565b6107aa565b60405161029b9190611181565b60405180910390f35b6102be60048036038101906102b99190610ecd565b6107c8565b6040516102cb91906112fe565b60405180910390f35b6060600380546102e390611462565b80601f016020809104026020016040519081016040528092919081815260200182805461030f90611462565b801561035c5780601f106103315761010080835404028352916020019161035c565b820191906000526020600020905b81548152906001019060200180831161033f57829003601f168201915b5050505050905090565b600061037a61037361084f565b8484610857565b6001905092915050565b6000600254905090565b600061039b848484610a22565b6000600160008673ffffffffffffffffffffffffffffffffffffffff1673ffffffffffffffffffffffffffffffffffffffff16815260200190815260200160002060006103e661084f565b73ffffffffffffffffffffffffffffffffffffffff1673ffffffffffffffffffffffffffffffffffffffff16815260200190815260200160002054905082811015610466576040517f08c379a000000000000000000000000000000000000000000000000000000000815260040161045d9061123e565b60405180910390fd5b6104838561047261084f565b858461047e91906113a6565b610857565b60019150509392505050565b60006012905090565b600061053a6104a561084f565b8484600160006104b361084f565b73ffffffffffffffffffffffffffffffffffffffff1673ffffffffffffffffffffffffffffffffffffffff16815260200190815260200160002060008873ffffffffffffffffffffffffffffffffffffffff1673ffffffffffffffffffffffffffffffffffffffff168152602001908152602001600020546105359190611350565b610857565b6001905092915050565b61055561054f61084f565b82610ca1565b50565b60008060008373ffffffffffffffffffffffffffffffffffffffff1673ffffffffffffffffffffffffffffffffffffffff168152602001908152602001600020549050919050565b60006105b3836105ae61084f565b6107c8565b9050818110156105f8576040517f08c379a00000000000000000000000000000000000000000000000000000000081526004016105ef9061125e565b60405180910390fd5b6106158361060461084f565b848461061091906113a6565b610857565b61061f8383610ca1565b505050565b60606004805461063390611462565b80601f016020809104026020016040519081016040528092919081815260200182805461065f90611462565b80156106ac5780601f10610681576101008083540402835291602001916106ac565b820191906000526020600020905b81548152906001019060200180831161068f57829003601f168201915b5050505050905090565b600080600160006106c561084f565b73ffffffffffffffffffffffffffffffffffffffff1673ffffffffffffffffffffffffffffffffffffffff16815260200190815260200160002060008573ffffffffffffffffffffffffffffffffffffffff1673ffffffffffffffffffffffffffffffffffffffff16815260200190815260200160002054905082811015610782576040517f08c379a0000000000000000000000000000000000000000000000000000000008152600401610779906112de565b60405180910390fd5b61079f61078d61084f565b85858461079a91906113a6565b610857565b600191505092915050565b60006107be6107b761084f565b8484610a22565b6001905092915050565b6000600160008473ffffffffffffffffffffffffffffffffffffffff1673ffffffffffffffffffffffffffffffffffffffff16815260200190815260200160002060008373ffffffffffffffffffffffffffffffffffffffff1673ffffffffffffffffffffffffffffffffffffffff16815260200190815260200160002054905092915050565b600033905090565b600073ffffffffffffffffffffffffffffffffffffffff168373ffffffffffffffffffffffffffffffffffffffff1614156108c7576040517f08c379a00000000000000000000000000000000000000000000000000000000081526004016108be906112be565b60405180910390fd5b600073ffffffffffffffffffffffffffffffffffffffff168273ffffffffffffffffffffffffffffffffffffffff161415610937576040517f08c379a000000000000000000000000000000000000000000000000000000000815260040161092e906111fe565b60405180910390fd5b80600160008573ffffffffffffffffffffffffffffffffffffffff1673ffffffffffffffffffffffffffffffffffffffff16815260200190815260200160002060008473ffffffffffffffffffffffffffffffffffffffff1673ffffffffffffffffffffffffffffffffffffffff168152602001908152602001600020819055508173ffffffffffffffffffffffffffffffffffffffff168373ffffffffffffffffffffffffffffffffffffffff167f8c5be1e5ebec7d5bd14f71427d1e84f3dd0314c0f7b2291e5b200ac8c7c3b92583604051610a1591906112fe565b60405180910390a3505050565b600073ffffffffffffffffffffffffffffffffffffffff168373ffffffffffffffffffffffffffffffffffffffff161415610a92576040517f08c379a0000000000000000000000000000000000000000000000000000000008152600401610a899061129e565b60405180910390fd5b600073ffffffffffffffffffffffffffffffffffffffff168273ffffffffffffffffffffffffffffffffffffffff161415610b02576040517f08c379a0000000000000000000000000000000000000000000000000000000008152600401610af9906111be565b60405180910390fd5b610b0d838383610e75565b60008060008573ffffffffffffffffffffffffffffffffffffffff1673ffffffffffffffffffffffffffffffffffffffff16815260200190815260200160002054905081811015610b93576040517f08c379a0000000000000000000000000000000000000000000000000000000008152600401610b8a9061121e565b60405180910390fd5b8181610b9f91906113a6565b6000808673ffffffffffffffffffffffffffffffffffffffff1673ffffffffffffffffffffffffffffffffffffffff16815260200190815260200160002081905550816000808573ffffffffffffffffffffffffffffffffffffffff1673ffffffffffffffffffffffffffffffffffffffff1681526020019081526020016000206000828254610c2f9190611350565b925050819055508273ffffffffffffffffffffffffffffffffffffffff168473ffffffffffffffffffffffffffffffffffffffff167fddf252ad1be2c89b69c2b068fc378daa952ba7f163c4a11628f55a4df523b3ef84604051610c9391906112fe565b60405180910390a350505050565b600073ffffffffffffffffffffffffffffffffffffffff168273ffffffffffffffffffffffffffffffffffffffff161415610d11576040517f08c379a0000000000000000000000000000000000000000000000000000000008152600401610d089061127e565b60405180910390fd5b610d1d82600083610e75565b60008060008473ffffffffffffffffffffffffffffffffffffffff1673ffffffffffffffffffffffffffffffffffffffff16815260200190815260200160002054905081811015610da3576040517f08c379a0000000000000000000000000000000000000000000000000000000008152600401610d9a906111de565b60405180910390fd5b8181610daf91906113a6565b6000808573ffffffffffffffffffffffffffffffffffffffff1673ffffffffffffffffffffffffffffffffffffffff168152602001908152602001600020819055508160026000828254610e0391906113a6565b92505081905550600073ffffffffffffffffffffffffffffffffffffffff168373ffffffffffffffffffffffffffffffffffffffff167fddf252ad1be2c89b69c2b068fc378daa952ba7f163c4a11628f55a4df523b3ef84604051610e6891906112fe565b60405180910390a3505050565b505050565b600081359050610e8981611819565b92915050565b600081359050610e9e81611830565b92915050565b600060208284031215610eb657600080fd5b6000610ec484828501610e7a565b91505092915050565b60008060408385031215610ee057600080fd5b6000610eee85828601610e7a565b9250506020610eff85828601610e7a565b9150509250929050565b600080600060608486031215610f1e57600080fd5b6000610f2c86828701610e7a565b9350506020610f3d86828701610e7a565b9250506040610f4e86828701610e8f565b9150509250925092565b60008060408385031215610f6b57600080fd5b6000610f7985828601610e7a565b9250506020610f8a85828601610e8f565b9150509250929050565b600060208284031215610fa657600080fd5b6000610fb484828501610e8f565b91505092915050565b610fc6816113ec565b82525050565b6000610fd782611334565b610fe1818561133f565b9350610ff181856020860161142f565b610ffa816114f2565b840191505092915050565b600061101260238361133f565b915061101d82611503565b604082019050919050565b600061103560228361133f565b915061104082611552565b604082019050919050565b600061105860228361133f565b9150611063826115a1565b604082019050919050565b600061107b60268361133f565b9150611086826115f0565b604082019050919050565b600061109e60288361133f565b91506110a98261163f565b604082019050919050565b60006110c160248361133f565b91506110cc8261168e565b604082019050919050565b60006110e460218361133f565b91506110ef826116dd565b604082019050919050565b600061110760258361133f565b91506111128261172c565b604082019050919050565b600061112a60248361133f565b91506111358261177b565b604082019050919050565b600061114d60258361133f565b9150611158826117ca565b604082019050919050565b61116c81611418565b82525050565b61117b81611422565b82525050565b60006020820190506111966000830184610fbd565b92915050565b600060208201905081810360008301526111b68184610fcc565b905092915050565b600060208201905081810360008301526111d781611005565b9050919050565b600060208201905081810360008301526111f781611028565b9050919050565b600060208201905081810360008301526112178161104b565b9050919050565b600060208201905081810360008301526112378161106e565b9050919050565b6000602082019050818103600083015261125781611091565b9050919050565b60006020820190508181036000830152611277816110b4565b9050919050565b60006020820190508181036000830152611297816110d7565b9050919050565b600060208201905081810360008301526112b7816110fa565b9050919050565b600060208201905081810360008301526112d78161111d565b9050919050565b600060208201905081810360008301526112f781611140565b9050919050565b60006020820190506113136000830184611163565b92915050565b600060208201905061132e6000830184611172565b92915050565b600081519050919050565b600082825260208201905092915050565b600061135b82611418565b915061136683611418565b9250827fffffffffffffffffffffffffffffffffffffffffffffffffffffffffffffffff0382111561139b5761139a611494565b5b828201905092915050565b60006113b182611418565b91506113bc83611418565b9250828210156113cf576113ce611494565b5b828203905092915050565b60006113e5826113f8565b9050919050565b60008115159050919050565b600073ffffffffffffffffffffffffffffffffffffffff82169050919050565b6000819050919050565b600060ff82169050919050565b60005b8381101561144d578082015181840152602081019050611432565b8381111561145c576000848401525b50505050565b6000600282049050600182168061147a57607f821691505b6020821081141561148e5761148d6114c3565b5b50919050565b7f4e487b7100000000000000000000000000000000000000000000000000000000600052601160045260246000fd5b7f4e487b7100000000000000000000000000000000000000000000000000000000600052602260045260246000fd5b6000601f19601f8301169050919050565b7f45524332303a207472616e7366657220746f20746865207a65726f206164647260008201527f6573730000000000000000000000000000000000000000000000000000000000602082015250565b7f45524332303a206275726e20616d6f756e7420657863656564732062616c616e60008201527f6365000000000000000000000000000000000000000000000000000000000000602082015250565b7f45524332303a20617070726f766520746f20746865207a65726f20616464726560008201527f7373000000000000000000000000000000000000000000000000000000000000602082015250565b7f45524332303a207472616e7366657220616d6f756e742065786365656473206260008201527f616c616e63650000000000000000000000000000000000000000000000000000602082015250565b7f45524332303a207472616e7366657220616d6f756e742065786365656473206160008201527f6c6c6f77616e6365000000000000000000000000000000000000000000000000602082015250565b7f45524332303a206275726e20616d6f756e74206578636565647320616c6c6f7760008201527f616e636500000000000000000000000000000000000000000000000000000000602082015250565b7f45524332303a206275726e2066726f6d20746865207a65726f2061646472657360008201527f7300000000000000000000000000000000000000000000000000000000000000602082015250565b7f45524332303a207472616e736665722066726f6d20746865207a65726f20616460008201527f6472657373000000000000000000000000000000000000000000000000000000602082015250565b7f45524332303a20617070726f76652066726f6d20746865207a65726f2061646460008201527f7265737300000000000000000000000000000000000000000000000000000000602082015250565b7f45524332303a2064656372656173656420616c6c6f77616e63652062656c6f7760008201527f207a65726f000000000000000000000000000000000000000000000000000000602082015250565b611822816113da565b811461182d57600080fd5b50565b61183981611418565b811461184457600080fd5b5056fea264697066735822122085f92fdd682ac871ce9ae417eae90eb23d8b92194c752871491064bdf5d0e35764736f6c63430008030033",
  "immutableReferences": {},
  "source": "// SPDX-License-Identifier: MIT\npragma solidity ^0.8.0;\n\nimport \"@openzeppelin/contracts/token/ERC20/ERC20.sol\";\nimport \"@openzeppelin/contracts/token/ERC20/extensions/ERC20Burnable.sol\";\n\ncontract SELENDRATOKEN is ERC20, ERC20Burnable {\n    constructor() ERC20(\"SELENDRA TOKEN\", \"SEL\") {\n        _mint(msg.sender, 3149592654 * (10**uint256(decimals())));\n    }\n}\n",
  "sourcePath": "/home/ayoung/project/Selendra-BEP20/contracts/SEL.sol",
  "compiler": {
    "name": "solc",
    "version": "0.8.3+commit.8d00100c.Emscripten.clang"
  },
  "schemaVersion": "3.3.4",
  "updatedAt": "2021-06-16T09:30:57.491Z",
  "devdoc": {
    "kind": "dev",
    "methods": {
      "allowance(address,address)": {
        "details": "See {IERC20-allowance}."
      },
      "approve(address,uint256)": {
        "details": "See {IERC20-approve}. Requirements: - `spender` cannot be the zero address."
      },
      "balanceOf(address)": {
        "details": "See {IERC20-balanceOf}."
      },
      "burn(uint256)": {
        "details": "Destroys `amount` tokens from the caller. See {ERC20-_burn}."
      },
      "burnFrom(address,uint256)": {
        "details": "Destroys `amount` tokens from `account`, deducting from the caller's allowance. See {ERC20-_burn} and {ERC20-allowance}. Requirements: - the caller must have allowance for ``accounts``'s tokens of at least `amount`."
      },
      "decimals()": {
        "details": "Returns the number of decimals used to get its user representation. For example, if `decimals` equals `2`, a balance of `505` tokens should be displayed to a user as `5,05` (`505 / 10 ** 2`). Tokens usually opt for a value of 18, imitating the relationship between Ether and Wei. This is the value {ERC20} uses, unless this function is overridden; NOTE: This information is only used for _display_ purposes: it in no way affects any of the arithmetic of the contract, including {IERC20-balanceOf} and {IERC20-transfer}."
      },
      "decreaseAllowance(address,uint256)": {
        "details": "Atomically decreases the allowance granted to `spender` by the caller. This is an alternative to {approve} that can be used as a mitigation for problems described in {IERC20-approve}. Emits an {Approval} event indicating the updated allowance. Requirements: - `spender` cannot be the zero address. - `spender` must have allowance for the caller of at least `subtractedValue`."
      },
      "increaseAllowance(address,uint256)": {
        "details": "Atomically increases the allowance granted to `spender` by the caller. This is an alternative to {approve} that can be used as a mitigation for problems described in {IERC20-approve}. Emits an {Approval} event indicating the updated allowance. Requirements: - `spender` cannot be the zero address."
      },
      "name()": {
        "details": "Returns the name of the token."
      },
      "symbol()": {
        "details": "Returns the symbol of the token, usually a shorter version of the name."
      },
      "totalSupply()": {
        "details": "See {IERC20-totalSupply}."
      },
      "transfer(address,uint256)": {
        "details": "See {IERC20-transfer}. Requirements: - `recipient` cannot be the zero address. - the caller must have a balance of at least `amount`."
      },
      "transferFrom(address,address,uint256)": {
        "details": "See {IERC20-transferFrom}. Emits an {Approval} event indicating the updated allowance. This is not required by the EIP. See the note at the beginning of {ERC20}. Requirements: - `sender` and `recipient` cannot be the zero address. - `sender` must have a balance of at least `amount`. - the caller must have allowance for ``sender``'s tokens of at least `amount`."
      }
    },
    "version": 1
  },
  "userdoc": {
    "kind": "user",
    "methods": {},
    "version": 1
  }
}